00000000000010449160000000912800009420152024100300002791212543000000000041RAMOS CONTRERAS CARLOS JAVIER                     0000000000000000                                                                                                              
00000000000010485313000091000220132610042024100300005617317333000000000341CARBAJAL CHACON BERTHA FLORENC                    0000000000000000                                                                                                              
00000000000010667243000000326000002801382024100300007690716202500000000041BONILLA ALVARO LUPE ISABEL                        0000000000000000                                                                                                              
00000000000010799220000006001090000640122024100300001975613510700000000131QUISPE HUARCA PAULA                               0000000000000000                                                                                                              
00000000000001225998000058001340114670062024100300001056313005200000000071PINEDA GONZALES BEATRIZ                           0000000000000000                                                                                                              
00000000000001293457000000701100033920092024100300003989514021100000000081ROQUE PONCE PASCUAL TECLO                         0000000000000000                                                                                                              
00000000000001299500000026000040130200042024100300018490713074300000000141VILCA LOPE IRMA                                   0000000000000000                                                                                                              
00000000000001299670000009101100016090092024100300028689518014800000000381MAMANI CALLATA BACILIA                            0000000000000000                                                                                                              
00000000000001338514000006001340116490072024100300001477415341500000000231CORONADO QUISPE DORIS                             0000000000000000                                                                                                              
00000000000001338514000000062040142660152024100300005580115173900000000211CORONADO QUISPE DORIS                             0000000000000000                                                                                                              
00000000000001529764000056100210137930012024100300017552817484500000000091VILCAPAZA MAMANI ANDREA                           0000000000000000                                                                                                              
00000000000001538357000000562020242350232024100300007139112131500000000171ROCA MACHACA MARIO                                0000000000000000                                                                                                              
00000000000015384812000000116000006321492024100300010030113484600000000011ALVARADO GONZALES DEL VALLE JA                    0000000000000000                                                                                                              
00000000000001538895000007001340136760052024100300009861516483900000000141SURCO QUISPE JUANA ROSA                           0000000000000000                                                                                                              
00000000000001552597000007400820173110012024100300009728915124300000000231MENDOZA CCAJMA LUCIO                              0000000000000000                                                                                                              
00000000000001555343000007000220119070072024100300001778815485600000000261LUQUE HANCCO BENEDICTO                            0000000000000000                                                                                                              
00000000000001556635000005600220009730092024100300015011918153900000000121PUMALEQUE HANCCO CARMEN ROSA                      0000000000000000                                                                                                              
00000000000016400825000000852020196160162024100300003071517330300000000061RAMIREZ LOPEZ DAVID JULIO                         0000000000000000                                                                                                              
00000000000016542491000085200120128770032024100300010074712201200000000071VALLADOLID DIAZ FRANCISCA                         0000000000000000                                                                                                              
00000000000016682632000008501090013600092024100300009797111252300000000021PERALES ALTAMIRANO ADAN SEGUND                    0000000000000000                                                                                                              
00000000000016712294000000852040067010122024100300003002616401700000000201GASTELO BUSTAMANTE MAGALLI ROS                    0000000000000000                                                                                                              
00000000000016724834000008500110016230092024100300008048812423500000000091CAMPOS FERNANDEZ LETICIA ELIZA                    0000000000000000                                                                                                              
00000000000016779656000085100110132730022024100300016147214031600000000121VILLANUEVA HUAMAN MARCELINA                       0000000000000000                                                                                                              
00000000000016781600000000852020203450142024100300004418412321600000000081MAYRA CAPUNAY NANCY ELIZABETH                     0000000000000000                                                                                                              
00000000000016792445000085000220121250042024100300013044511585900000000051VILLEGAS ESTRELLA PETRONILA                       0000000000000000                                                                                                              
00000000000017525525000085000040109980072024100300001067214363700000000141DIAZ CASTILLO CLEMENCIA                           0000000000000000                                                                                                              
00000000000001761596000028100110009570082024100300003011118150100000000461CRUZ ISIDRO CONCEPCION                            0000000000000000                                                                                                              
00000000000001763470000028001340127730012024100300005187216331300000000271MARIACA CHOQUEZA HILARIA                          0000000000000000                                                                                                              
00000000000001783088000026001340150850022024100300001583117085100000000371JARECCA JARECCA DANIEL                            0000000000000000                                                                                                              
00000000000001793289000002600220013330092024100300009732114443800000000251RISALAZO COAQUIRA EMETERIO                        0000000000000000                                                                                                              
00000000000001794981000026001340160590012024100300002120912175500000000101CONDORI PARI ROSENDO                              0000000000000000                                                                                                              
00000000000018063743000006001090154680032024100300019272818195000000000471POLO DEL CASTILLO ROSMERI                         0000000000000000                                                                                                              
00000000000018210698000084000040130110042024100300001058815192800000000121MENDIETA CARBONEL LUCIA                           0000000000000000                                                                                                              
00000000000001834443000006001340158710022024100300003175012145600000000091MAMANI CORI JOSE                                  0000000000000000                                                                                                              
00000000000001837025000026000220106020082024100300003998717362200000000431LAURA QUISPE ROMULO                               0000000000000000                                                                                                              
00000000000001844488000000202420040800132024100300011173011273200000000041CACERES RIVERA EDUARDO                            0000000000000000                                                                                                              
00000000000001845653000000201280001390142024100300003374713355400000000131NEIRA CALAMANI CARLOS                             0000000000000000                                                                                                              
00000000000001852277000002601100013100092024100300002174513152100000000171QUENTA RAMIREZ MICAELA                            0000000000000000                                                                                                              
00000000000001855794000026001090115490062024100300004955611495100000000071INCACUTIPA TICONA CARMEN                          0000000000000000                                                                                                              
00000000000001862117000000202780000850142024100300011089113404500000000021AGUILAR AGUILAR NINFA                             0000000000000000                                                                                                              
00000000000001862256000026001340123140052024100300000998315042700000000291CCALLATA MAMANI FILOMENA                          0000000000000000                                                                                                              
00000000000001863543000026200120159240012024100300002109915024200000000281FLORES HUANACUNI LUCIA                            0000000000000000                                                                                                              
00000000000001870707000026000220108910072024100300001056516344900000000301MAMANI MAMANI MARIA                               0000000000000000                                                                                                              
00000000000001889270000000262040186970152024100300005853211182200000000041CCALLATA QUISPE ROSENDO                           0000000000000000                                                                                                              
00000000000019094421000084300210129850042024100300036237814341400000000081AGUILAR LOPEZ SANTOS FELIPE                       0000000000000000                                                                                                              
00000000000019561036000083001340132220052024100300008699417013200000000271ROJAS QUIROZ DANILA                               0000000000000000                                                                                                              
00000000000001993962000000701090007890112024100300003628212052500000000161QUISPE CAHUAPAZA CLAUDIO                          0000000000000000                                                                                                              
00000000000020013159000096001340166640022024100300009437416324300000000091QUISPE CHUQUIMANTARI HUGO EDUA                    0000000000000000                                                                                                              
00000000000002003662000000700220039280092024100300002952013373100000000031APAZA APAZA JUAN PABLO                            0000000000000000                                                                                                              
00000000000020089834000073000220149520012024100300009959217095000000000131FERNANDEZ PARCO ANA MARIA                         0000000000000000                                                                                                              
00000000000020096003000073000220149780012024100300007182710582700000000061QUISPE QUISPE EDGAR CONSTANTIN                    0000000000000000                                                                                                              
00000000000002027355000058000220135750012024100300007449515481200000000131MAMANI TICONA FELIPA                              0000000000000000                                                                                                              
00000000020539645324000008100310134610022024100300025876614462600000000041MAQUINARIAS LEONARDO E.I.R.L.                     0000000000000000                                                                                                              
00000000020600110218000070100210134220072024100300018681813514100000000081YABAR PARURO EMPRESA INDIVIDUA                    0000000000000000                                                                                                              
00000000020608226070000055200210170920012024100300089911411435300000000061CORPORACION PPK EMPRESA INDIVI                    0000000000000000                                                                                                              
00000000000002064032000007000220158330032024100300005926617554900000000481ZAPANA CALSIN LEONARDO                            0000000000000000                                                                                                              
00000000000021433481000009601090005830112024100300001038619003600000000161ALFARO DE CAPCHA BALVINA YSIDO                    0000000000000000                                                                                                              
00000000000021439620000096000040139400052024100300005034016552800000000101VILCA DE FERNANDEZ ADILBERTA                      0000000000000000                                                                                                              
00000000000021461263000096200210172940012024100300065515913083100000000041NOA ORE ESTHER NELLY                              0000000000000000                                                                                                              
00000000000002147568000007000220159810032024100300002025717511100000000461QUISOCALA OJEDA JULIAN SILVEST                    0000000000000000                                                                                                              
00000000000002151280000007400820149870042024100300014286614442400000000221PEREZ YUCRA INOCENCIA VICTORIA                    0000000000000000                                                                                                              
00000000000021513917000000962380033110142024100300001605116034700000000071HUAMAN TASAYCO DE MARCOS LUCIL                    0000000000000000                                                                                                              
00000000000021536142000096001340157570032024100300010065417334300000000111ALARCON ANYOSA ERNA CATALINA                      0000000000000000                                                                                                              
00000000000002155800000000592040171400212024100300007284711385900000000031ANDIA QUISPE CEFERINA                             0000000000000000                                                                                                              
00000000000021564127000096000040150850042024100300003036117594200000000111LLACCHUA PUZA EUSEBIA NEMESIA                     0000000000000000                                                                                                              
00000000000022060504000091200130126190052024100300003423617074600000000311POMA GARRIAZO HERMENEGILDO                        0000000000000000                                                                                                              
00000000000022061709000009100110011200102024100300011524214241800000000171RAMOS DE QUISPE MAURA MARTHA                      0000000000000000                                                                                                              
00000000000022063499000000912040100420132024100300011138715011100000000181ORTEGA TATAJE LUZ AURORA                          0000000000000000                                                                                                              
00000000000022063499000009100210010860102024100300011762515011100000000181ORTEGA TATAJE LUZ AURORA                          0000000000000000                                                                                                              
00000000000022065384000091000220141940032024100300001682316121200000000251GARRIAZO CRUCES LUCIO                             0000000000000000                                                                                                              
00000000000022065384000091100110120000062024100300002581716121200000000251GARRIAZO CRUCES LUCIO                             0000000000000000                                                                                                              
00000000000022065384000091100110151850012024100300005199316121200000000251GARRIAZO CRUCES LUCIO                             0000000000000000                                                                                                              
00000000000022074013000009101100012030102024100300011791911320000000000011SERVELEON CHAMPE VICTOR RAUL                      0000000000000000                                                                                                              
00000000000022074013000091100210152660012024100300016398411324700000000021SERVELEON CHAMPE VICTOR RAUL                      0000000000000000                                                                                                              
00000000000022079399000091200130127000052024100300002822816112200000000261REYES ROSSI ABELARDO AMED                         0000000000000000                                                                                                              
00000000000022080366000091100210132950042024100300031640917130800000000331ATOCCSA QUISPE JOSE ENRIQUE                       0000000000000000                                                                                                              
00000000000022082429000091400810147840022024100300002477012530100000000081INJANTE HERRERA EDITH VIRGINIA                    0000000000000000                                                                                                              
00000000000022098430000091000040133620042024100300001060017495400000000361HUAMANI MITMA ROBERTINA                           0000000000000000                                                                                                              
00000000000022099290000091200130124940052024100300001979114084700000000161FLORES FLORES PEDRO RAUL                          0000000000000000                                                                                                              
00000000000002292270000040100210117420072024100300028658217520400000000191GUTIERREZ PACORI VICTOR                           0000000000000000                                                                                                              
00000000000023821367000071400830125800062024100300005660717542600000000201GALLEGOS FERNANDEZ MAURO                          0000000000000000                                                                                                              
00000000000023824345000070100110278200012024100300006652616041200000000141VICTORIO BERROCAL  BERTHA                         0000000000000000                                                                                                              
00000000000023841408000070001090133520072024100300004893315104200000000161ORTIZ ZUNIGA VIRGINIA                             0000000000000000                                                                                                              
00000000000023863962000040400830164610042024100300011784812061400000000021TORRES BRAVO BERTHA                               0000000000000000                                                                                                              
00000000000023884468000040000220151490052024100300010206513472800000000031ELGUERA SOTO VICTOR RAUL                          0000000000000000                                                                                                              
00000000000023884909000000702420079850212024100300026136112560300000000071FERRO DAVALOS JUAN                                0000000000000000                                                                                                              
00000000000023897420000040001090162260042024100300016316018000500000000261HUAMAN QUISPE VIRGINIA                            0000000000000000                                                                                                              
00000000000023916048000070000220161360062024100300008625216534800000000111ALVAREZ DURAND JUANA                              0000000000000000                                                                                                              
00000000000023922316000070001340250170022024100300005027118452300000000301HUISA HUARCAYA LUISA                              0000000000000000                                                                                                              
00000000000023925015000000883720001400362024100300017868112530800000000131LOAIZA ARMUTO CRISPIN                             0000000000000000                                                                                                              
00000000000023937733000040100210165840042024100300020627011112900000000061QUISPE BARRIOS JUANA                              0000000000000000                                                                                                              
00000000000023941046000040400830184000022024100300001324316571200000000241CALDERON SANCHEZ MONICA FLOREN                    0000000000000000                                                                                                              
00000000000023963255000040000220150730052024100300005978517164400000000161MONTALVO ALCARRAS MARGARITA                       0000000000000000                                                                                                              
00000000000023967307000046001090164050012024100300019222315051200000000221ESCALANTE OJEDA EDITH                             0000000000000000                                                                                                              
00000000000023986995000006600140038270092024100300008733918432000000000171CHAVEZ DE LAURENTE SEGUNDINA                      0000000000000000                                                                                                              
00000000000023993075000088001090112180062024100300003973917120900000000371PINTO GAMARRA JOSEFINA                            0000000000000000                                                                                                              
00000000000002412057000003200120034160082024100300003071915324200000000241YERBA CHIPANA DE ANCO CLOTILDE                    0000000000000000                                                                                                              
00000000000002435726000046000220123090062024100300004698714034800000000071CHAPARRO GUEVARA DAVID EDGARDO                    0000000000000000                                                                                                              
00000000000024388733000000664280103520232024100300010583511550100000000031SINCHE HUALLPARIMACHI JESUS                       0000000000000000                                                                                                              
00000000000024391630000070001090237730032024100300007808015463400000000131SALAS HUANACO REGINA                              0000000000000000                                                                                                              
00000000000002439454000000700220007340112024100300001056610303700000000051MAMANI OVIEDO MARY CARMEN                         0000000000000000                                                                                                              
00000000000002440883000007000220165590022024100300007816612311600000000051QUISPE RODRIGO YOLANDA                            0000000000000000                                                                                                              
00000000000002447754000000293720011810352024100300008942313023200000000201PALOMINO MANZANO SIDNEY PINENA                    0000000000000000                                                                                                              
00000000000024580840000000551940013750312024100300002507816344000000000201GARATE SALAS ELMA                                 0000000000000000                                                                                                              
00000000000024799472000000702380118120162024100300016503616171700000000211MENDOZA AGUIRRE JUAN WASHINGTO                    0000000000000000                                                                                                              
00000000000024868908000055001340113310072024100300002987517374000000000281KANA QQUEHUE SATURNINO                            0000000000000000                                                                                                              
00000000000024876035000055001340142770042024100300003807415594800000000161SAICO HINCHO IGNACIA                              0000000000000000                                                                                                              
00000000000024878749000055001340162310022024100300002151214024600000000051ANDIA HUAMANI FRANCISCO JAVIER                    0000000000000000                                                                                                              
00000000000024893197000000552020167180202024100300002379616492600000000241LLASA KANA EUFROCINA                              0000000000000000                                                                                                              
00000000000024895288000055200210138850042024100300016489113431000000000041SURCO CCAPA ARMANDO LUCHO                         0000000000000000                                                                                                              
00000000000025121805000042100110145380042024100300003000514195000000000211MAMANI TECSI ISIDRO MARCELO                       0000000000000000                                                                                                              
00000000000025127814000046001340148880032024100300003121214130100000000121HANCCO SULLCA CARLOS                              0000000000000000                                                                                                              
00000000000025312466000000702420086310162024100300023661018224500000000251QUILLAHUAMAN HUILLCANINA CRIST                    0000000000000000                                                                                                              
00000000000026673075000089001340150340032024100300003123417064200000000161PINEDO UPIACHIHUAY IDA LEONOR                     0000000000000000                                                                                                              
00000000000002698829000050000220177060012024100300003771217491900000000201CHERO DE BAUTISTA MARIA ALICIA                    0000000000000000                                                                                                              
00000000000027363732000008101090022300092024100300001004214010100000000121BURGA RUIZ LUZ MAXIMINA                           0000000000000000                                                                                                              
00000000000027370399000000812420035420222024100300034369816114000000000251CUSMA GONZALES NELIDA                             0000000000000000                                                                                                              
00000000000027393599000008100110025420092024100300003641214565300000000161VASQUEZ PERALTA SEGUNDO REINAL                    0000000000000000                                                                                                              
00000000000027398669000081100110168380032024100300007414115552600000000231TAPIA MUNOZ ALINDOR                               0000000000000000                                                                                                              
00000000000027416567000000792420032680142024100300009992716184500000000321BERNAL DIAZ WILDER                                0000000000000000                                                                                                              
00000000000027416902000081000040167130032024100300003657118235000000000491SANCHEZ CIEZA MARIA LIBORIA                       0000000000000000                                                                                                              
00000000000027420131000081001340116910072024100300002132216424500000000291CUBAS SAAVEDRA ANTENOR                            0000000000000000                                                                                                              
00000000000027421014000083001340115980072024100300001505217304300000000291CASAS RUIZ JUANA                                  0000000000000000                                                                                                              
00000000000027428415000008100110016500102024100300003791916374900000000271VELARDE GARCIA CLEMIRA                            0000000000000000                                                                                                              
00000000000027430513000008100210014680102024100300019211315565800000000241CIEZA DELGADO BACILIO                             0000000000000000                                                                                                              
00000000000027540402000079001340166370022024100300002078210260100000000051RAMOS LOZANO AUGUSTO                              0000000000000000                                                                                                              
00000000000027551706000079001090164710022024100300004028315090000000000291VASQUEZ DE HUAMAN VICTORIA                        0000000000000000                                                                                                              
00000000000027575965000000792380023800122024100300002030212031100000000171VASQUEZ CUBAS HILDEBRANDO                         0000000000000000                                                                                                              
00000000000027575965000079001100148870042024100300008350212031100000000171VASQUEZ CUBAS HILDEBRANDO                         0000000000000000                                                                                                              
00000000000027997919000079001090171490012024100300004861512353700000000191ORTIZ CARUAJULCA LUZ DELIA                        0000000000000000                                                                                                              
00000000000028461868000009000110026650082024100300010049715544100000000211BERROCAL ALARCON CARMELITA                        0000000000000000                                                                                                              
00000000000028711831000009000220011690102024100300001098311230600000000091VARGAS LUJAN REINA BETINA                         0000000000000000                                                                                                              
00000000000028711831000090100110122670052024100300005308711233000000000101VARGAS LUJAN REINA BETINA                         0000000000000000                                                                                                              
00000000000028825411000096001340170760022024100300001579918123200000000151QUISPE PAUCCA IRENE                               0000000000000000                                                                                                              
00000000000028825411000096100110041390082024100300001064018123200000000151QUISPE PAUCCA IRENE                               0000000000000000                                                                                                              
00000000000029236283000002000110017870102024100300006589916361800000000291CORDOVA FLORES ESTEBAN VITALIA                    0000000000000000                                                                                                              
00000000000029316023000008200130136780012024100300003382611341000000000121CHOCO PAZ GERARDO FREDDY                          0000000000000000                                                                                                              
00000000000029319616000000022380054960182024100300011009115114800000000111CAYLLAHUA YUCRA SEVERO RUFO                       0000000000000000                                                                                                              
00000000000029413973000007200120163690022024100300003138515424000000000071CHAYNA APAZA GREGORIA                             0000000000000000                                                                                                              
00000000000029564243000010200220113960012024100300153981018150800000000221NINA CONDORI DE ZEGARRA BETTY                     0000000000000000                                                                                                              
00000000000029616096000000226000009541202024100300008015513134100000000061CASAPERALTA CUSI MEDALISS VALE                    0000000000000000                                                                                                              
00000000000029618306000000952420005890312024100300015268315554700000000111VILCA SOTOMAYOR SIMONA LUCIA                      0000000000000000                                                                                                              
00000000000029620211000008001100110640072024100300013080211360300000000021CHOQUEHUANCA ZAPATA FELIX                         0000000000000000                                                                                                              
00000000000029625975000000552380048070152024100300006888015284500000000101TARIFA FLOREZ GUALBERTO                           0000000000000000                                                                                                              
00000000000029633504000003000220145610032024100300014647712030500000000041PENA QUISPE ANA                                   0000000000000000                                                                                                              
00000000000029669624000000226000003581412024100300005639910401500000000031ZEBALLOS MIRABAL CHRISTIAN ESM                    0000000000000000                                                                                                              
00000000000029687161000008000220129940032024100300001123616583500000000121YAULI SAICO HIPOLITO                              0000000000000000                                                                                                              
00000000000029704242000000226000009911152024100300016543016572400000000061MAYTA LAURA HUBERT ISAIAS                         0000000000000000                                                                                                              
00000000000029708347000008000220120100052024100300027259317183900000000151TICONA TICONA MARIA DEL PILAR                     0000000000000000                                                                                                              
00000000000029726424000003001100140850042024100300019901618384000000000071ANAHUI ANDIA DUCELIA DAMARIS                      0000000000000000                                                                                                              
00000000000030402615000000401090007410112024100300006779318164800000000071OCHOA CATOMA FELIX ALBERTO                        0000000000000000                                                                                                              
00000000000030674165000003400830153700022024100300001612014465400000000051LOPEZ MAMANI SILVIA ARACELI                       0000000000000000                                                                                                              
00000000000030677855000091200210131790042024100300028753016570800000000301VIVANCO CCORAHUA CRISTINA                         0000000000000000                                                                                                              
00000000000030771868000003000220132170052024100300001064516301400000000331SUCLLE QUISPE CELESTINA                           0000000000000000                                                                                                              
00000000000030851017000094001340137400012024100300000960214395600000000141CHOQUEHUANCA APAZA OTILIA                         0000000000000000                                                                                                              
00000000000031034197000061001340175180012024100300005175917005800000000181HERENCIA ALLAUCA BIDES                            0000000000000000                                                                                                              
00000000000032735802000050000220028640082024100300002090417273700000000141VILLANUEVA ACUNA ABRAHAM                          0000000000000000                                                                                                              
00000000000032797259000050100110152800032024100300003215617135000000000111VELASQUEZ CRUZ ANDRES                             0000000000000000                                                                                                              
00000000000032908587000050100210142080042024100300017650016141400000000031PALMA CASTRO MARINA CATALINA                      0000000000000000                                                                                                              
00000000000032946936000000502020309220202024100300007348717221100000000121VASQUEZ MENDOZA BETHY                             0000000000000000                                                                                                              
00000000000032976588000005000110019880092024100300003131218233200000000271HOLGUIN SANCHEZ NANCY NOEMI                       0000000000000000                                                                                                              
00000000000032976588000050100110132100052024100300002704318245400000000281HOLGUIN SANCHEZ NANCY NOEMI                       0000000000000000                                                                                                              
00000000000033263567000050200130144130042024100300001985316543600000000091SUYON REYES JOSE LAZARO                           0000000000000000                                                                                                              
00000000000003495463000049400830133030042024100300000896517142300000000061CANIZALES SALAZAR WILFREDO JAV                    0000000000000000                                                                                                              
00000000000003506374000006100110164700022024100300004328116363100000000281BELLO RODRIGUEZ YESSICA MARGAR                    0000000000000000                                                                                                              
00000000000040009727000002000220004710112024100300009691216305500000000281QUISPE PALACIOS CAYETANA                          0000000000000000                                                                                                              
00000000000040014103000006200210139380042024100300026440111315300000000041LIMACHE CRUZ RONALD                               0000000000000000                                                                                                              
00000000000040031928000006100110166450022024100300014558913522300000000121CHURA ALANOCA JOSE                                0000000000000000                                                                                                              
00000000000040045459000026000220133580042024100300004965617053400000000361LOPE RAFAEL NORMA YOBANA                          0000000000000000                                                                                                              
00000000000040052385000026001100140370032024100300002122913333600000000201LUPACA GUEVARA MERY                               0000000000000000                                                                                                              
00000000000040084041000007000220125900062024100300009364311221900000000041MAMANI QUISPE YULISA                              0000000000000000                                                                                                              
00000000000040138013000094001090138810012024100300005874012474300000000051QUISPE ZUNIGA RUTH PETRONILA                      0000000000000000                                                                                                              
00000000000040157147000008100110126400042024100300003638514403200000000081CONTRERAS PORTOCARRERO JESSICA                    0000000000000000                                                                                                              
00000000000040159203000090001090117010062024100300003975310060700000000061CANCHARI LOPEZ ANA MARIA                          0000000000000000                                                                                                              
00000000000040211087000046100210115330072024100300018590817401800000000411CONSA CRUZ MARIA ESTELA                           0000000000000000                                                                                                              
00000000000040225371000055100210161030022024100300020620017184600000000271HUAMANI ALVAREZ MARYSOL                           0000000000000000                                                                                                              
00000000000040303574000055100210124410062024100300026565817394000000000291VALDEZ HILARIO CASIMIRA                           0000000000000000                                                                                                              
00000000000040320594000094000040138530012024100300004375316463900000000221ORTIZ CCOA JEANETTE MARISOL                       0000000000000000                                                                                                              
00000000000040334995000007000220128550062024100300005905916302500000000381BENIQUE QUISPE VIKY EULOGIA                       0000000000000000                                                                                                              
00000000000040335000000070001340240280032024100300001056713184800000000071MENDOZA COLQUEHUANCA JACQUELIN                    0000000000000000                                                                                                              
00000000000040365446000000062380041820152024100300011135014065800000000031AVENDANO HUAYCHANI MARIA ELENA                    0000000000000000                                                                                                              
00000000000040365446000006100210135330052024100300019290214075000000000041AVENDANO HUAYCHANI MARIA ELENA                    0000000000000000                                                                                                              
00000000000040403511000000132780001270122024100300011713716192900000000041ASENCIO COAGUILA AMELIA                           0000000000000000                                                                                                              
00000000000040418127000090001100141320012024100300014575117503100000000291PAUCCARIMA ROBLES FELICITAS LU                    0000000000000000                                                                                                              
00000000000040429417000001301090000390122024100300002013116481200000000091CHAMBILLA TICONA ANTONIO EVER                     0000000000000000                                                                                                              
00000000000040444017000079400810149610042024100300001241414513900000000271PAREDES AREVALO ELSA                              0000000000000000                                                                                                              
00000000000040454292000002600110003120112024100300007310413104500000000151BUTRON MAQUERA OLGA                               0000000000000000                                                                                                              
00000000000040456869000006400830144000042024100300000957617534500000000421TACO BALBOA YULY BRIGIDA                          0000000000000000                                                                                                              
00000000000040461284000000802420023670202024100300010629512371800000000041TELLO SILVA MONICA JUDITH                         0000000000000000                                                                                                              
00000000000040476499000094000220122910042024100300007246915291600000000161QUISPE ARO BERTHA                                 0000000000000000                                                                                                              
00000000000040483827000070400830218980042024100300001784817352700000000191ZAPATA TOMAYCONZA INES                            0000000000000000                                                                                                              
00000000000040485366000005500220020530092024100300005003317472000000000211YNCARROQUE CCORAHUA WALTER                        0000000000000000                                                                                                              
00000000000040485366000055001090171980012024100300005927917472000000000211YNCARROQUE CCORAHUA WALTER                        0000000000000000                                                                                                              
00000000000040511060000006400830122060062024100300001820918175100000000531ZEA GONZALES MAGALY                               0000000000000000                                                                                                              
00000000000040511060000006100110176680012024100300003291918165100000000521ZEA GONZALES MAGALY                               0000000000000000                                                                                                              
00000000000040511060000006001340143040042024100300001088518153200000000501ZEA GONZALES MAGALY                               0000000000000000                                                                                                              
00000000000040530273000010000040116220062024100300002111314563300000000141QUISOCALA QUISOCALA NELY                          0000000000000000                                                                                                              
00000000000040562209000066200120192450012024100300003109514341000000000071HUANCCOLLUCHO SANCHEZ JUANA                       0000000000000000                                                                                                              
00000000000040570148000007001090118200072024100300009754013413900000000051VILCA QUISPE MARIA                                0000000000000000                                                                                                              
00000000000040649556000081100110190630012024100300003863918214500000000481DIAZ MEJIA MERCEDES                               0000000000000000                                                                                                              
00000000000040752699000002000110007630112024100300014998511162100000000031JINEZ HUANACUNE HECTOR RAUL                       0000000000000000                                                                                                              
00000000000040776976000000701100024930102024100300005691510431200000000081TICONA RIVERA CIRO                                0000000000000000                                                                                                              
00000000000040776976000007100210045480082024100300012207510431200000000081TICONA RIVERA CIRO                                0000000000000000                                                                                                              
00000000000040794220000091000220158110012024100300005149213193700000000151FANOLA RIOS TIMOTEA                               0000000000000000                                                                                                              
00000000000040794220000091100110127600052024100300010241113193700000000151FANOLA RIOS TIMOTEA                               0000000000000000                                                                                                              
00000000000040811361000000402420053190252024100300019773616251000000000291ROCCA CASTILLA SANDRA                             0000000000000000                                                                                                              
00000000000040829295000058200120109930072024100300003124516205200000000031CARI YANARICO NILDA                               0000000000000000                                                                                                              
00000000000040880321000002600220015070092024100300001266215510100000000311CRUZ TICONA DORA CARMEN                           0000000000000000                                                                                                              
00000000000040893552000094400810138480012024100300005881718005000000000281FARFAN GARCIA GERARDOABEL                         0000000000000000                                                                                                              
00000000000040894755000003100110113460072024100300004949818510600000000481MAMANI AISA MARIA                                 0000000000000000                                                                                                              
00000000000040908615000005900220010100082024100300012451817082500000000121MAMANI ZELA LEONIDAS                              0000000000000000                                                                                                              
00000000000040953652000000700110021130102024100300005203816031600000000301QUISPE PANDIA NAZARIA                             0000000000000000                                                                                                              
00000000000041012157000027001090122220022024100300010884014240900000000021HUANCHI HUALLPA NELLY                             0000000000000000                                                                                                              
00000000000041025345000000802800004010162024100300005642715212500000000111VASQUEZ CACHI JOSE SANTOS                         0000000000000000                                                                                                              
00000000000041037460000006001100171640012024100300010739117463900000000111TACO CANSAYA VICTOR                               0000000000000000                                                                                                              
00000000000041047630000000962020087580152024100300003815817161600000000101MOLINA RUNTO NELLY                                0000000000000000                                                                                                              
00000000000041047630000000962020087580162024100300003679517161600000000101MOLINA RUNTO NELLY                                0000000000000000                                                                                                              
00000000000041060929000000832380003710122024100300011399617385800000000301SALDANA REBAZA EVER EDILBERTO                     0000000000000000                                                                                                              
00000000000041067709000000601090022320102024100300004859714070800000000181CACCHA CHAUCCA AMABELIA                           0000000000000000                                                                                                              
00000000000041106396000000326000003091382024100300006375813444200000000061QUINTANA ROBLADILLO NORA KAROL                    0000000000000000                                                                                                              
00000000000041115220000000293720008990352024100300008941415461700000000111COLQUEHUANCA ARESTEGUI BRIGIDA                    0000000000000000                                                                                                              
00000000000041115486000061001090115790072024100300004923815425500000000081CAYLLAHUA SALAZAR MARIZA                          0000000000000000                                                                                                              
00000000000041176283000070000220110460082024100300014505012030200000000051HUAHUALUQUE VALDEZ SERGIO ROGE                    0000000000000000                                                                                                              
00000000000041196991000000326000008401292024100300011908916494100000000011SUBILETA RODRIGUEZ EDGAR                          0000000000000000                                                                                                              
00000000000041236509000026000220106360082024100300004732617382200000000451WASWALDO MAQUERA VICTORIA                         0000000000000000                                                                                                              
00000000000000412580000000062380036690172024100300009614015554400000000261CHURA MONTALICO GREGORIO                          0000000000000000                                                                                                              
00000000000041315781000000463240027200252024100300035814510421500000000011RONDON CRUZ ELIANA                                0000000000000000                                                                                                              
00000000000041323849000000326000010771302024100300008729914135400000000131PARI ADANAQUE HENRY                               0000000000000000                                                                                                              
00000000000041381791000007001090043200102024100300013557217275000000000121BORNAS SANTANDER ROMEL ENVER                      0000000000000000                                                                                                              
00000000000041429787000007400830128400062024100300001811317291700000000451LLUTARI  PANCCA SILVIA                            0000000000000000                                                                                                              
00000000000041440604000020100110150850032024100300004926217353400000000361CUNURANA ROJAS JUAN ENRIQUE                       0000000000000000                                                                                                              
00000000000041492844000061000220165800022024100300009803915050500000000061ROMERO ABARCA WALTER                              0000000000000000                                                                                                              
00000000000041527638000000062040127860242024100300006532116252000000000261MAMANI COAQUERA DORA ASUSENA                      0000000000000000                                                                                                              
00000000000041534170000050001090178190012024100300017387817375000000000181ROQUE RUBIO EDER ALEJANDRO                        0000000000000000                                                                                                              
00000000000041566036000085000220133390022024100300011933117140300000000231ARRUNATEGUI OLAZABAL ALEX RENA                    0000000000000000                                                                                                              
00000000000041586598000000326000016851122024100300016131714054900000000051PRINCIPE NORABUENA ELIZABETH M                    0000000000000000                                                                                                              
00000000000041607961000000201280001150152024100300025695014173100000000141PONCE MORENO LIDIA                                0000000000000000                                                                                                              
00000000000041665912000083000220113530072024100300004156614252700000000091LAIZA VASQUEZ CARMELA SUSANA                      0000000000000000                                                                                                              
00000000000041709857000000792420030500172024100300013760416113600000000311ZAMBRANO MANOSALVA EGUBERTO                       0000000000000000                                                                                                              
00000000000041784139000026001340151010022024100300005063616051000000000331CCAMA FLORES JUAN                                 0000000000000000                                                                                                              
00000000000041845711000000226000007721322024100300004109415515600000000101MANRIQUE REVILLA SERGIO OSWALD                    0000000000000000                                                                                                              
00000000000042021633000079100110133750052024100300005061817294300000000441BECERRA GUEVARA WILLAN RICHAR                     0000000000000000                                                                                                              
00000000000042041918000000022800000480242024100300034484215392000000000251LOPEZ MAMANI CARLOS                               0000000000000000                                                                                                              
00000000000042085828000026001090115560062024100300003008914563300000000261AYMA CHURATA ISIDORA                              0000000000000000                                                                                                              
00000000000042103735000003400830160060012024100300000896112345300000005256LAZO LLERENA CLAUDIO MIGUEL                       0000000000000000                                                                                                              
00000000000042106729000026200120158330012024100300001893017164200000000381PENALOZA CASTRO MICAELA                           0000000000000000                                                                                                              
00000000000042155760000081100110152510042024100300005739214482200000000151DIAZ HUINAC ALICIA                                0000000000000000                                                                                                              
00000000000042171408000055400810128410062024100300003095216461500000000221CARLOS PEREZ ELISBAN                              0000000000000000                                                                                                              
00000000000042189429000004201090008360112024100300009678617225000000000381ROJAS QUISPERIMACHI BERTHA                        0000000000000000                                                                                                              
00000000000042198106000020100110036100082024100300002310117390200000000401CHATA PACOHUANACO SAMUEL JOSE                     0000000000000000                                                                                                              
00000000000042202551000002600120003780112024100300006844811342500000000051MAQUERA CONTRERAS LIDIA ALICIA                    0000000000000000                                                                                                              
00000000000042214101000079001090113730072024100300005924711265000000000151LUNA RUIZ SEGUNDO CASTINALDO                      0000000000000000                                                                                                              
00000000000042353967000000082380046620152024100300011025217463400000000201CONTRERAS CCALLATA NOLBERTA                       0000000000000000                                                                                                              
00000000000042353967000000800220012690092024100300005913317473600000000221CONTRERAS CCALLATA NOLBERTA                       0000000000000000                                                                                                              
00000000000042364463000058000040132960022024100300004152617154500000000061CONDORI MUNUICO SONIA                             0000000000000000                                                                                                              
00000000000042394078000094000220117230052024100300011049518134000000000291TONCONI MAMANI WILSON                             0000000000000000                                                                                                              
00000000000042404932000081100110188910012024100300006401811110300000000071MORETO RODRIGO WILLAN                             0000000000000000                                                                                                              
00000000000042457475000079001340158110032024100300002107114524500000000281PEREZ BURGA LUZ MARGARITA                         0000000000000000                                                                                                              
00000000000042500938000006001090175970012024100300007159313364400000000111CANDRO CHURA LUZ MARINA                           0000000000000000                                                                                                              
00000000000042582579000053100110144100032024100300004287116092600000000231SALAZAR FLORES MARIA TERESA                       0000000000000000                                                                                                              
00000000000042612075000073000220120220062024100300001879416461100000000101YARO VILLAVERDE LILIA                             0000000000000000                                                                                                              
00000000000042676561000091400830133960042024100300000896816521600000000281CONTENA TAIPE EDWIN EDUARDO                       0000000000000000                                                                                                              
00000000000042698109000007001090128100062024100300009698315032300000000031SANCA ZAPANA JANETH                               0000000000000000                                                                                                              
00000000000042699572000070100210160290062024100300008385217320600000000191LOPEZ SOUZA FRANKLIN PAUL                         0000000000000000                                                                                                              
00000000000042724199000027100110116750042024100300006903417184700000000051ACERO SANDOVAL MIDHUAR                            0000000000000000                                                                                                              
00000000000042729939000079100110158000032024100300004315916341100000000351BLANCO LEIVA LINDAURA                             0000000000000000                                                                                                              
00000000000042733310000006001340177600012024100300001898218225500000000121MOLLE COLLATUPA ADRIAN RENE                       0000000000000000                                                                                                              
00000000000042778731000076100110048180082024100300009880314522400000000091CERQUIN DIAZ SAMUEL                               0000000000000000                                                                                                              
00000000000042782351000066400830145860052024100300003416217172900000000081HUANACO ESTRADA ALICIA                            0000000000000000                                                                                                              
00000000000042796089000085001090126750032024100300027545111182900000000021SANCHEZ MENDOZA ERMES                             0000000000000000                                                                                                              
00000000000042799579000005300220030460092024100300001087616461000000000261GONZALES AUCCAPUMA ROXANA                         0000000000000000                                                                                                              
00000000000042814637000050001340147990032024100300002974617304900000000161JIMENEZ RODRIGUEZ MARIA MARIBE                    0000000000000000                                                                                                              
00000000000042825925000026001340151680022024100300002106917375500000000441LOPEZ RAMOS LUCIO                                 0000000000000000                                                                                                              
00000000000042837449000026001340143850032024100300001056816560600000000411ALVARADO HUARAZA JULIO JAVIER                     0000000000000000                                                                                                              
00000000000042925676000007001090046500082024100300007850317484700000000441COAQUIRA APAZA HEBERT                             0000000000000000                                                                                                              
00000000000042943013000026200120142160032024100300003124610553300000000021CENTON JAILLITA MARIVEL                           0000000000000000                                                                                                              
00000000000043021095000000700110039050092024100300001581818220500000000551APAZA SANCA CECILIA MARIA                         0000000000000000                                                                                                              
00000000000043029512000079100110127570062024100300019481710234600000000041VASQUEZ HERRERA ELI YERMER                        0000000000000000                                                                                                              
00000000000043059726000000226000001761442024100300004974914012500000000161ROQUE AMESQUITA ROBERTO ANTONI                    0000000000000000                                                                                                              
00000000000043100479000008401090016680082024100300006855716231700000000181SANCHEZ ZAVALETA LILA DEYSI                       0000000000000000                                                                                                              
00000000000043108506000006100110112240072024100300006913613211400000000111MAMANI MAMANI VIOLETA                             0000000000000000                                                                                                              
00000000000043127793000026100110143740032024100300008380217184900000000391CASTILLO QUISPE MIRIAM LIZZETH                    0000000000000000                                                                                                              
00000000000043140826000006200130130450052024100300001985216280200000000271CARDENAS CARDENAS SAHAGUN REGI                    0000000000000000                                                                                                              
00000000000043223803000000462420068770312024100300012023716191500000000191FERNANDEZ TTITO CARLOS VIDAL                      0000000000000000                                                                                                              
00000000000000432281000006100110127840062024100300001582217434600000000371TAPIA VARGAS MARTIN ALBERTO                       0000000000000000                                                                                                              
00000000000043310710000006100110120810062024100300010369018020300000000231MAMANI CONDORI ALEX                               0000000000000000                                                                                                              
00000000000043316160000081100110185370012024100300003800416510000000000351MARRUFO DELGADO ROSABEL                           0000000000000000                                                                                                              
00000000000043345822000079001090114640072024100300009842817101500000000381FIGUEROA RODAS MARUJA                             0000000000000000                                                                                                              
00000000000043370112000055100110132430052024100300007908116252700000000191CCASANI QUISPE ESTEBAN                            0000000000000000                                                                                                              
00000000000043376031000006100110037910082024100300002111617093200000000351CALISAYA  CONDORI ANGELICA                        0000000000000000                                                                                                              
00000000000043386709000081001340166660032024100300001101617491400000000401BELARDE AGUILAR HUMBERTO                          0000000000000000                                                                                                              
00000000000043429230000085000220137430012024100300019237416173100000000171COLUNCHE TARRILLO NEPTALI                         0000000000000000                                                                                                              
00000000000043479820000003400830159900012024100300000895617153500000000381MAMANI GIL NIDA                                   0000000000000000                                                                                                              
00000000000043491225000000552420025980222024100300003680018180400000000341HUASPA TAIPE CIRILA                               0000000000000000                                                                                                              
00000000000043514217000006000220131450052024100300017979817052400000000311CUTIPA PARI MARIA ANGELICA                        0000000000000000                                                                                                              
00000000000043548121000061001090155620032024100300011655316143600000000131HUANA CARIRE VICTORIA                             0000000000000000                                                                                                              
00000000000004355203000061200130156310032024100300003939512455400000000041ORTIZ PINZON ANA EDUVIGES                         0000000000000000                                                                                                              
00000000000043573322000085000220133130022024100300019349511295300000000031CHAVEZ MARTINEZ CELESTINO                         0000000000000000                                                                                                              
00000000000043680813000000032800002200172024100300010847216382300000000341CONDORI SAAVEDRA MARIA EUGENIA                    0000000000000000                                                                                                              
00000000000043746706000085001340140350012024100300001897516250100000000191RODRIGUEZ MONTEZA HELCIAS                         0000000000000000                                                                                                              
00000000000043762255000079001340135430052024100300001056510313400000000061RUIZ DIAZ YONY WILMER                             0000000000000000                                                                                                              
00000000000043769918000081001090154040042024100300007022316462300000000321EDQUEN GAVIDIA GERALDINE MARIS                    0000000000000000                                                                                                              
00000000000043785016000079001340134440062024100300001056417202900000000411TELLO WALTER WILMA                                0000000000000000                                                                                                              
00000000000043825048000007600110035880092024100300003490017170200000000181LLAMOGA OCAS MARIA SANTOS                         0000000000000000                                                                                                              
00000000000043830414000085200120128280032024100300007082613171700000000041TOCAS SEGOBIA NELIDA                              0000000000000000                                                                                                              
00000000000043839879000026000220106440082024100300001511812041600000000081FLORES CONTRERAS AMELIA                           0000000000000000                                                                                                              
00000000000043908614000000812040169500142024100300006998416471500000000331DIAZ VASQUEZ SILVER ANTONIO                       0000000000000000                                                                                                              
00000000000043976209000084100110131440042024100300004318611251600000000021LARREA PRETEL ERNESTO FERNANDO                    0000000000000000                                                                                                              
00000000000044065424000000300220024860092024100300003109116531900000000041CUSIHUALLPA PUMASUPA MARINA                       0000000000000000                                                                                                              
00000000000044106811000009000830020640092024100300000996016430000000000231CORNEJO NAVARRO ROBERTO OMNIO                     0000000000000000                                                                                                              
00000000000004418546000002000210018920102024100300012947513054300000000091RAMOS GUTIERREZ NASARIO ADRIEL                    0000000000000000                                                                                                              
00000000000044187942000008100110017180082024100300002020516141100000000041CONDORI CARI MERCEDES THAIS                       0000000000000000                                                                                                              
00000000000044191669000006001340157150032024100300005188115403200000008376YQUE JIMENEZ JONATHAN JUNIOR                      0000000000000000                                                                                                              
00000000000044196579000000022040146550232024100300002315915433900000000261MEDINA ARGOTE DIANA LUZ                           0000000000000000                                                                                                              
00000000000044225200000000322800000730232024100300006731016222700000000331VARGAS TUPAC FERNANDA GABINA                      0000000000000000                                                                                                              
00000000000044243652000090200210128760042024100300046150614280300000000171ARANGO BEJAR EDSON                                0000000000000000                                                                                                              
00000000000000442762000006100110134020052024100300005193516485900000000211APAZA TICONA POLICARPIO                           0000000000000000                                                                                                              
00000000000044289796000090100110115820062024100300002327810441600000000081MUNOZ MORALES VILMA DELIA                         0000000000000000                                                                                                              
00000000000004432424000013001340134840042024100300002600915450700000000071CHIARELLA ROJAS FORTUNATA                         0000000000000000                                                                                                              
00000000000044387336000084000220139280022024100300018945115122900000000111SEMINARIO RODRIGUEZ MARCO ANTO                    0000000000000000                                                                                                              
00000000000044399610000000832420031530212024100300031309316502800000000231REYES RUIZ MARITZA JANET                          0000000000000000                                                                                                              
00000000000044402190000090001090128570042024100300019511612505200000000131FERNANDEZ QUISPE ESTHER                           0000000000000000                                                                                                              
00000000000044435914000000402420069680142024100300012109613433400000000051PAUCCAR JANAMPA WILFREDO                          0000000000000000                                                                                                              
00000000000044449456000032100110126320012024100300007219016525700000000081CCAMA HUALLPA WILBER                              0000000000000000                                                                                                              
00000000000044452488000000083540011560122024100300002257113361200000000061CHUNAPA PIMENTEL ANA MARIA                        0000000000000000                                                                                                              
00000000000044459094000071100110141490042024100300008296617102600000000181LEON RAMOS ROCIO                                  0000000000000000                                                                                                              
00000000000044475947000000226000007841322024100300004608916530500000000371LOZA ALPACA MIRIAM JEANETTE                       0000000000000000                                                                                                              
00000000000044517826000042000220157560022024100300007660017373000000000401SANCA CHAUCA PERCY  ROBINSON                      0000000000000000                                                                                                              
00000000000044517933000055001340171480012024100300001907212502100000000031CCAHUANA BAUTISTA GUILLERMINA                     0000000000000000                                                                                                              
00000000000044561423000000132380057570172024100300011148418000900000000121MOLLOCONDO FLORES JOSE TADEO                      0000000000000000                                                                                                              
00000000000044584383000009100130010940102024100300003421111505200000000061CHALCO MACOTELA MANUEL ANTONIO                    0000000000000000                                                                                                              
00000000000044587599000000402380146200122024100300004882017184800000000171CHAVEZ MONTALVO DAVID EDWARD                      0000000000000000                                                                                                              
00000000000044619948000071200130148720032024100300003094016043100000000131YUCRA MELO ESRRON                                 0000000000000000                                                                                                              
00000000000044735222000008100210005930112024100300014601716443400000000301DIAZ EDQUEN NERIO                                 0000000000000000                                                                                                              
00000000000044753335000000612440016000162024100300039104016475200000000161ESPINOZA LOPEZ BELTRAN                            0000000000000000                                                                                                              
00000000000044758654000058001090120780052024100300007574516392800000000151CHAMBILLA MAMANI ROGER                            0000000000000000                                                                                                              
00000000000044759317000005500210011550102024100300019671718385500000000371JACINTO UMASI OLGA                                0000000000000000                                                                                                              
00000000000044792054000091001100151030012024100300005911713155600000000121REYES RAMIREZ CESAR EDWIN                         0000000000000000                                                                                                              
00000000000044857324000026001340151840022024100300003112616270100000000351JULI PONGO NANCY                                  0000000000000000                                                                                                              
00000000000044901779000070000220104360082024100300003116814341400000000121CHOQUECONZA GALLEGOS JULIO JHO                    0000000000000000                                                                                                              
00000000000044990318000007100110165930022024100300019238616451000000000401MAMANI MULLISACA PABLO                            0000000000000000                                                                                                              
00000000000044991611000070001090127500072024100300009962514255300000000081HUAMAN QUISPE WILFREDO                            0000000000000000                                                                                                              
00000000000045019878000090200130132210032024100300001993716465700000000241REYES ZAVALA MARIA ELENA                          0000000000000000                                                                                                              
00000000000045036542000079000040108500082024100300002109415520900000000301ORRILLO BAUTISTA ANITA                            0000000000000000                                                                                                              
00000000000045092180000091100110138670032024100300006194513090100000000111VILCATOMA ORTIZ KAREN ROMINA                      0000000000000000                                                                                                              
00000000000045102067000053200210126680052024100300024240615175300000000181SILVERA CUSINGA BASILIA                           0000000000000000                                                                                                              
00000000000045111498000010000220120810052024100300004309514360200000000071CHAHUAILLO SALVADOR JOSE ARMAN                    0000000000000000                                                                                                              
00000000000045116113000007100110127250062024100300003163616105400000000311QUISPE CAHUANA JUAN GUALBERTO                     0000000000000000                                                                                                              
00000000000045145496000013100110154780012024100300009863315023600000000051HUACHO MAMANI HABRAHAM HERIBER                    0000000000000000                                                                                                              
00000000000045198441000000262020514690152024100300000896713124800000000161MAMANI FLORES LUCILA                              0000000000000000                                                                                                              
00000000000045210243000007000220118650072024100300005064111303700000000111QUISPE QUISPE VIRGINIA                            0000000000000000                                                                                                              
00000000000045228887000007000220166090022024100300009772615485300000000281CHINO QUISPE NELSON WASHINGTON                    0000000000000000                                                                                                              
00000000000045241803000000132020129810142024100300008639117042000000000061GOMEZ LAURA FREDY FRANCISCO                       0000000000000000                                                                                                              
00000000000045252266000084100110134660032024100300010249515483200000000151ARTEAGA LAYZA LUIS FRANCISCO                      0000000000000000                                                                                                              
00000000000045254433000028001100121850022024100300015949815153000000000101OLIVA CHUCUYA ELVA ELVIRA                         0000000000000000                                                                                                              
00000000000045438969000007000220120120072024100300005928312322400000000191TINTAYA MAMANI  LUZ ELIANA                        0000000000000000                                                                                                              
00000000000045540097000006100210120970062024100300035871818412400000000561VILCA RAMOS CANDELARIA                            0000000000000000                                                                                                              
00000000000045579420000079000040150160042024100300001058814214600000000241ORTIZ GIL MARITUVILDA                             0000000000000000                                                                                                              
00000000000045641547000081100110169110032024100300007470616481400000000341DIAZ EDQUEN LUCIA                                 0000000000000000                                                                                                              
00000000000045729687000002000110012250032024100300001283115424000000000221PEREZ QUENTA MARIO                                0000000000000000                                                                                                              
00000000000045858503000079001090147570042024100300005096611093000000000111VASQUEZ TERRONES TEONILA                          0000000000000000                                                                                                              
00000000000045968850000009101090001170122024100300003014818253700000000421SILLERICO ARMACANQUI MAYRA GIS                    0000000000000000                                                                                                              
00000000000045968850000091100210025120082024100300011546318253700000000421SILLERICO ARMACANQUI MAYRA GIS                    0000000000000000                                                                                                              
00000000000046023894000055100110125420062024100300008210015544300000000141HANCCO SUCLLE LUIS RENZO                          0000000000000000                                                                                                              
00000000000046032641000084100110133750032024100300002272715441000000000141CRUZADO GUARNIZ EDGAR ARTURO                      0000000000000000                                                                                                              
00000000000046038100000083001340144020042024100300002116017221000000000281AVILA CARBAJAL HERNANDO WALTER                    0000000000000000                                                                                                              
00000000000046041765000085100110108990072024100300002591114150700000000131SERQUEN  CRUZ DEYVI JAAN                          0000000000000000                                                                                                              
00000000000046073194000040001340055330082024100300002981314572400000007576JORGE HERRERA MILCA                               0000000000000000                                                                                                              
00000000000046092564000032200130121910032024100300001980116425800000000071HUAQUISTO PERALTA HUGO                            0000000000000000                                                                                                              
00000000000046201089000013100110155280012024100300007529517072300000000101CUAYLA HERRERA SERGIO RAUL                        0000000000000000                                                                                                              
00000000000046213926000094400830131920022024100300001894111491000000000031MEDINA CERRUTTO AHIEZER                           0000000000000000                                                                                                              
00000000000004624616000000942380053440152024100300002889517031900000000231JIMENEZ CAYPA LIRIA MARITZA                       0000000000000000                                                                                                              
00000000000004624838000000942380053930152024100300005682317483400000000251MONTOYA GARCIA WILLY TEOBALDO                     0000000000000000                                                                                                              
00000000000004624838000009400220005220102024100300004928217483400000000251MONTOYA GARCIA WILLY TEOBALDO                     0000000000000000                                                                                                              
00000000000046287775000000032380043520222024100300004661417455400000000441LLOSA CARDENAS LEONARDA CANDEL                    0000000000000000                                                                                                              
00000000000046308416000094001340133850022024100300003139017543500000000261COPARI CONDORI GLADYS YESICA                      0000000000000000                                                                                                              
00000000000004630876000070100210273150012024100300018541415162300000000131BERNABE ALAVE CAMILO                              0000000000000000                                                                                                              
00000000000004631623000000942380027190242024100300011170213133600000000101MAMANI ESPINOZA ROSENDA                           0000000000000000                                                                                                              
00000000000046341590000053200120142280032024100300005227415122800000000161AZORSA PALOMINO YONY                              0000000000000000                                                                                                              
00000000000046354577000083000220134740052024100300003216114380400000000101LAIZA VASQUEZ ELVIA                               0000000000000000                                                                                                              
00000000000004636502000094100110111880062024100300001065213090700000000091BELTRAN GORDILLO SILVIA ANA                       0000000000000000                                                                                                              
00000000000046422959000000462420097510122024100300016320616421200000000151CALSINA GUTIERREZ MERLING FANY                    0000000000000000                                                                                                              
00000000000046453067000007600220011180112024100300002100817371500000000191AGUILAR TORRES WILLY OMAR                         0000000000000000                                                                                                              
00000000000046457480000006001340166300022024100300001059817581100000000451QUISPE MARQUEZ CARMEN ROSMERY                     0000000000000000                                                                                                              
00000000000046486419000056000220137280012024100300002042715213300000000071CALCINA QUISPE AMELIA GLADYS                      0000000000000000                                                                                                              
00000000000046504670000008400120012270092024100300004214917162100000000251QUIROZ VALDERRAMA JANET                           0000000000000000                                                                                                              
00000000000004653559000094000220138690012024100300002384715450800000008416MAQUERA CUSACANI TERESA IRENE                     0000000000000000                                                                                                              
00000000000046571821000042400830109240082024100300000943516013500000000261SOLANO SUAREZ HILARIA                             0000000000000000                                                                                                              
00000000000046577254000000722420007840232024100300016551113025600000000071URIATE SACA YESSENIA                              0000000000000000                                                                                                              
00000000000046610215000055001090160420022024100300004857915533500000000131CONDO PACO YESICA                                 0000000000000000                                                                                                              
00000000000046617005000007000220081010092024100300002107814543800000000071YUPANQUI QUISPE VERONICA                          0000000000000000                                                                                                              
00000000000046617881000040001090189900012024100300029125217002900000000331URETA PUMA GENOVEVA ELIZABETH                     0000000000000000                                                                                                              
00000000000046666455000005500110012150102024100300006634218013600000000331LAGUNA CCAPA ALEJANDRO ESTEBAN                    0000000000000000                                                                                                              
00000000000046698849000003400810106470082024100300002104518141000000010696ORTIZ HUAMAN CARLOSAUGUSTO                        0000000000000000                                                                                                              
00000000000046817710000081100110170420032024100300007838015433400000000201CABRERA  BARBOZA NILDA                            0000000000000000                                                                                                              
00000000000046826823000091000220153400012024100300007417217540200000000371POMA NIETO KEYLLA NALLELY                         0000000000000000                                                                                                              
00000000000046826951000056000220012360082024100300002158411233400000000041LUQUE QUISPE NELIA VICTORIA                       0000000000000000                                                                                                              
00000000000046897637000000152380030250152024100300003573515122700000000071MEDINA VILCA NATALYJUDITH JUDI                    0000000000000000                                                                                                              
